{
  "contractName": "Election",
  "abi": [
    {
      "constant": true,
      "inputs": [
        {
          "name": "",
          "type": "uint256"
        }
      ],
      "name": "users",
      "outputs": [
        {
          "name": "id",
          "type": "uint256"
        },
        {
          "name": "username",
          "type": "string"
        },
        {
          "name": "password",
          "type": "string"
        }
      ],
      "payable": false,
      "stateMutability": "view",
      "type": "function",
      "signature": "0x365b98b2"
    },
    {
      "constant": true,
      "inputs": [],
      "name": "usersCount",
      "outputs": [
        {
          "name": "",
          "type": "uint256"
        }
      ],
      "payable": false,
      "stateMutability": "view",
      "type": "function",
      "signature": "0x6ba13a82"
    },
    {
      "inputs": [],
      "payable": false,
      "stateMutability": "nonpayable",
      "type": "constructor",
      "signature": "constructor"
    },
    {
      "constant": false,
      "inputs": [
        {
          "name": "_username",
          "type": "string"
        },
        {
          "name": "_pass",
          "type": "string"
        }
      ],
      "name": "addUser",
      "outputs": [],
      "payable": false,
      "stateMutability": "nonpayable",
      "type": "function",
      "signature": "0x079eaf34"
    }
  ],
  "bytecode": "0x608060405234801561001057600080fd5b506100946040805190810160405280601281526020017f67766e647368616840676d61696c2e636f6d00000000000000000000000000008152506040805190810160405280600881526020017f6162636465666768000000000000000000000000000000000000000000000000815250610099640100000000026401000000009004565b6101cd565b6001600081548092919060010191905055506060604051908101604052806001548152602001838152602001828152506000806001548152602001908152602001600020600082015181600001556020820151816001019080519060200190610103929190610128565b506040820151816002019080519060200190610120929190610128565b509050505050565b828054600181600116156101000203166002900490600052602060002090601f016020900481019282601f1061016957805160ff1916838001178555610197565b82800160010185558215610197579182015b8281111561019657825182559160200191906001019061017b565b5b5090506101a491906101a8565b5090565b6101ca91905b808211156101c65760008160009055506001016101ae565b5090565b90565b6105cd806101dc6000396000f3fe608060405260043610610057576000357c0100000000000000000000000000000000000000000000000000000000900463ffffffff168063079eaf341461005c578063365b98b2146101bb5780636ba13a82146102e2575b600080fd5b34801561006857600080fd5b506101b96004803603604081101561007f57600080fd5b810190808035906020019064010000000081111561009c57600080fd5b8201836020820111156100ae57600080fd5b803590602001918460018302840111640100000000831117156100d057600080fd5b91908080601f016020809104026020016040519081016040528093929190818152602001838380828437600081840152601f19601f8201169050808301925050505050505091929192908035906020019064010000000081111561013357600080fd5b82018360208201111561014557600080fd5b8035906020019184600183028401116401000000008311171561016757600080fd5b91908080601f016020809104026020016040519081016040528093929190818152602001838380828437600081840152601f19601f82011690508083019250505050505050919291929050505061030d565b005b3480156101c757600080fd5b506101f4600480360360208110156101de57600080fd5b810190808035906020019092919050505061039c565b604051808481526020018060200180602001838103835285818151815260200191508051906020019080838360005b8381101561023e578082015181840152602081019050610223565b50505050905090810190601f16801561026b5780820380516001836020036101000a031916815260200191505b50838103825284818151815260200191508051906020019080838360005b838110156102a4578082015181840152602081019050610289565b50505050905090810190601f1680156102d15780820380516001836020036101000a031916815260200191505b509550505050505060405180910390f35b3480156102ee57600080fd5b506102f76104f6565b6040518082815260200191505060405180910390f35b60016000815480929190600101919050555060606040519081016040528060015481526020018381526020018281525060008060015481526020019081526020016000206000820151816000015560208201518160010190805190602001906103779291906104fc565b5060408201518160020190805190602001906103949291906104fc565b509050505050565b6000602052806000526040600020600091509050806000015490806001018054600181600116156101000203166002900480601f01602080910402602001604051908101604052809291908181526020018280546001816001161561010002031660029004801561044e5780601f106104235761010080835404028352916020019161044e565b820191906000526020600020905b81548152906001019060200180831161043157829003601f168201915b505050505090806002018054600181600116156101000203166002900480601f0160208091040260200160405190810160405280929190818152602001828054600181600116156101000203166002900480156104ec5780601f106104c1576101008083540402835291602001916104ec565b820191906000526020600020905b8154815290600101906020018083116104cf57829003601f168201915b5050505050905083565b60015481565b828054600181600116156101000203166002900490600052602060002090601f016020900481019282601f1061053d57805160ff191683800117855561056b565b8280016001018555821561056b579182015b8281111561056a57825182559160200191906001019061054f565b5b509050610578919061057c565b5090565b61059e91905b8082111561059a576000816000905550600101610582565b5090565b9056fea165627a7a72305820f58cddf7ff5547ef414159e512e44c689867a33cbe26e52dbb4d1c402ff35c6b0029",
  "source": "pragma solidity 0.5.0;\r\n\r\n//parrot weekend decorate poverty purity stuff east slender aerobic room female swear\r\n\r\ncontract Election {\r\n    // Read/write candidate\r\n    struct Users {\r\n        uint id;\r\n        string username;\r\n        string password;\r\n    }\r\n\r\n    // Read/write candidates\r\n    mapping(uint => Users) public users;\r\n\r\n    uint public usersCount;\r\n\r\n\r\n    // Constructor\r\n    constructor() public {\r\n        addUser(\"gvndshah@gmail.com\", \"abcdefgh\");\r\n    }\r\n\r\n    function addUser (string memory _username, string memory _pass) public{\r\n        usersCount ++;\r\n        users[usersCount] = Users(usersCount, _username, _pass);\r\n    }\r\n    // function addNewUser (string memory _username, string memory _pass) public{\r\n    //     usersCount ++;\r\n    //     users[usersCount] = Users(usersCount, _username, _pass);\r\n    // }\r\n    // function addNewUser () public{\r\n    //     usersCount ++;\r\n    //     users[usersCount] = Users(usersCount, \"trial\", \"pass\");\r\n    // }\r\n\r\n}",
  "sourcePath": "C:/Users/Govind/Documents/DAS/DAS1.0/contracts/Election.sol",
  "compiler": {
    "name": "solc",
    "version": "0.5.0+commit.1d4f565a.Emscripten.clang"
  },
  "schemaVersion": "3.0.6",
  "updatedAt": "2019-04-09T07:42:00.076Z",
  "devdoc": {
    "methods": {}
  },
  "userdoc": {
    "methods": {}
  }
}